{
  "contractName": "Marketplace",
  "abi": [
    {
      "constant": true,
      "inputs": [],
      "name": "name",
      "outputs": [
        {
          "name": "",
          "type": "string"
        }
      ],
      "payable": false,
      "stateMutability": "view",
      "type": "function",
      "signature": "0x06fdde03"
    },
    {
      "constant": true,
      "inputs": [
        {
          "name": "",
          "type": "uint256"
        }
      ],
      "name": "idpackages",
      "outputs": [
        {
          "name": "",
          "type": "uint256"
        }
      ],
      "payable": false,
      "stateMutability": "view",
      "type": "function",
      "signature": "0x359543b7"
    },
    {
      "constant": true,
      "inputs": [
        {
          "name": "",
          "type": "uint256"
        }
      ],
      "name": "products",
      "outputs": [
        {
          "name": "num",
          "type": "uint256"
        },
        {
          "name": "productID",
          "type": "uint256"
        },
        {
          "name": "productName",
          "type": "string"
        },
        {
          "name": "manufactor",
          "type": "string"
        },
        {
          "name": "shipper",
          "type": "string"
        },
        {
          "name": "retailer",
          "type": "string"
        },
        {
          "name": "status",
          "type": "uint8"
        }
      ],
      "payable": false,
      "stateMutability": "view",
      "type": "function",
      "signature": "0x7acc0b20"
    },
    {
      "constant": true,
      "inputs": [],
      "name": "productCount",
      "outputs": [
        {
          "name": "",
          "type": "uint256"
        }
      ],
      "payable": false,
      "stateMutability": "view",
      "type": "function",
      "signature": "0xe0f6ef87"
    },
    {
      "constant": true,
      "inputs": [
        {
          "name": "",
          "type": "address"
        }
      ],
      "name": "UserInfo",
      "outputs": [
        {
          "name": "userAddress",
          "type": "address"
        },
        {
          "name": "userName",
          "type": "string"
        },
        {
          "name": "role",
          "type": "uint8"
        }
      ],
      "payable": false,
      "stateMutability": "view",
      "type": "function",
      "signature": "0xe377ee1b"
    },
    {
      "inputs": [],
      "payable": false,
      "stateMutability": "nonpayable",
      "type": "constructor",
      "signature": "constructor"
    },
    {
      "anonymous": false,
      "inputs": [
        {
          "indexed": true,
          "name": "productID",
          "type": "uint256"
        },
        {
          "indexed": false,
          "name": "productName",
          "type": "string"
        },
        {
          "indexed": false,
          "name": "manu",
          "type": "string"
        },
        {
          "indexed": false,
          "name": "status",
          "type": "uint8"
        }
      ],
      "name": "ProdcutCreated",
      "type": "event",
      "signature": "0xbd8b373ab98218eef3a8f5b9f56154abeeb2f5fd4444701065f564f85e3dfe29"
    },
    {
      "anonymous": false,
      "inputs": [
        {
          "indexed": true,
          "name": "productID",
          "type": "uint256"
        },
        {
          "indexed": false,
          "name": "owner",
          "type": "string"
        },
        {
          "indexed": false,
          "name": "status",
          "type": "uint8"
        }
      ],
      "name": "UpdateProductState",
      "type": "event",
      "signature": "0x69e6ed2699ef075e4e522a6ede612ed033375a895be47fc9335fc19e43659f63"
    },
    {
      "anonymous": false,
      "inputs": [
        {
          "indexed": false,
          "name": "userAddress",
          "type": "address"
        },
        {
          "indexed": false,
          "name": "userName",
          "type": "string"
        },
        {
          "indexed": false,
          "name": "userRole",
          "type": "uint256"
        }
      ],
      "name": "UserRegistered",
      "type": "event",
      "signature": "0x89105a1c6a3c2fbd471255c66a31ccab604af5697f67d7e2e9a0028c5e4dbd91"
    },
    {
      "constant": false,
      "inputs": [
        {
          "name": "_userAddress",
          "type": "address"
        },
        {
          "name": "_userName",
          "type": "string"
        },
        {
          "name": "_role",
          "type": "uint256"
        }
      ],
      "name": "registerUser",
      "outputs": [],
      "payable": false,
      "stateMutability": "nonpayable",
      "type": "function",
      "signature": "0xb612b21c"
    },
    {
      "constant": false,
      "inputs": [
        {
          "name": "_address",
          "type": "address"
        }
      ],
      "name": "checkUserExist",
      "outputs": [
        {
          "name": "",
          "type": "bool"
        }
      ],
      "payable": false,
      "stateMutability": "nonpayable",
      "type": "function",
      "signature": "0x926bef63"
    },
    {
      "constant": false,
      "inputs": [
        {
          "name": "_proID",
          "type": "uint256"
        },
        {
          "name": "_productName",
          "type": "string"
        }
      ],
      "name": "createProduct",
      "outputs": [],
      "payable": false,
      "stateMutability": "nonpayable",
      "type": "function",
      "signature": "0x0a01841d"
    },
    {
      "constant": false,
      "inputs": [
        {
          "name": "_proID",
          "type": "uint256"
        }
      ],
      "name": "shipProduct",
      "outputs": [],
      "payable": false,
      "stateMutability": "nonpayable",
      "type": "function",
      "signature": "0x2927d1d9"
    },
    {
      "constant": false,
      "inputs": [
        {
          "name": "_proID",
          "type": "uint256"
        }
      ],
      "name": "receiveProduct",
      "outputs": [],
      "payable": false,
      "stateMutability": "nonpayable",
      "type": "function",
      "signature": "0x29d78328"
    },
    {
      "constant": false,
      "inputs": [
        {
          "name": "id",
          "type": "uint256"
        }
      ],
      "name": "checkProductExits",
      "outputs": [
        {
          "name": "",
          "type": "bool"
        }
      ],
      "payable": false,
      "stateMutability": "nonpayable",
      "type": "function",
      "signature": "0x2c054c68"
    }
  ],
  "bytecode": "0x608060405260006002553480156200001657600080fd5b506040805190810160405280600b81526020017f4d61726b6574706c61636500000000000000000000000000000000000000000081525060009080519060200190620000649291906200006b565b506200011a565b828054600181600116156101000203166002900490600052602060002090601f016020900481019282601f10620000ae57805160ff1916838001178555620000df565b82800160010185558215620000df579182015b82811115620000de578251825591602001919060010190620000c1565b5b509050620000ee9190620000f2565b5090565b6200011791905b8082111562000113576000816000905550600101620000f9565b5090565b90565b612054806200012a6000396000f3fe6080604052600436106100af576000357c0100000000000000000000000000000000000000000000000000000000900463ffffffff16806306fdde03146100b45780630a01841d146101445780632927d1d91461021657806329d78328146102515780632c054c681461028c578063359543b7146102df5780637acc0b201461032e578063926bef6314610549578063b612b21c146105b2578063e0f6ef87146106a4578063e377ee1b146106cf575b600080fd5b3480156100c057600080fd5b506100c96107e1565b6040518080602001828103825283818151815260200191508051906020019080838360005b838110156101095780820151818401526020810190506100ee565b50505050905090810190601f1680156101365780820380516001836020036101000a031916815260200191505b509250505060405180910390f35b34801561015057600080fd5b506102146004803603604081101561016757600080fd5b81019080803590602001909291908035906020019064010000000081111561018e57600080fd5b8201836020820111156101a057600080fd5b803590602001918460018302840111640100000000831117156101c257600080fd5b91908080601f016020809104026020016040519081016040528093929190818152602001838380828437600081840152601f19601f82011690508083019250505050505050919291929050505061087f565b005b34801561022257600080fd5b5061024f6004803603602081101561023957600080fd5b8101908080359060200190929190505050610e2e565b005b34801561025d57600080fd5b5061028a6004803603602081101561027457600080fd5b8101908080359060200190929190505050611287565b005b34801561029857600080fd5b506102c5600480360360208110156102af57600080fd5b81019080803590602001909291905050506115e3565b604051808215151515815260200191505060405180910390f35b3480156102eb57600080fd5b506103186004803603602081101561030257600080fd5b810190808035906020019092919050505061163b565b6040518082815260200191505060405180910390f35b34801561033a57600080fd5b506103676004803603602081101561035157600080fd5b810190808035906020019092919050505061165e565b604051808881526020018781526020018060200180602001806020018060200186600281111561039357fe5b60ff16815260200185810385528a818151815260200191508051906020019080838360005b838110156103d35780820151818401526020810190506103b8565b50505050905090810190601f1680156104005780820380516001836020036101000a031916815260200191505b50858103845289818151815260200191508051906020019080838360005b8381101561043957808201518184015260208101905061041e565b50505050905090810190601f1680156104665780820380516001836020036101000a031916815260200191505b50858103835288818151815260200191508051906020019080838360005b8381101561049f578082015181840152602081019050610484565b50505050905090810190601f1680156104cc5780820380516001836020036101000a031916815260200191505b50858103825287818151815260200191508051906020019080838360005b838110156105055780820151818401526020810190506104ea565b50505050905090810190601f1680156105325780820380516001836020036101000a031916815260200191505b509b50505050505050505050505060405180910390f35b34801561055557600080fd5b506105986004803603602081101561056c57600080fd5b81019080803573ffffffffffffffffffffffffffffffffffffffff16906020019092919050505061190d565b604051808215151515815260200191505060405180910390f35b3480156105be57600080fd5b506106a2600480360360608110156105d557600080fd5b81019080803573ffffffffffffffffffffffffffffffffffffffff1690602001909291908035906020019064010000000081111561061257600080fd5b82018360208201111561062457600080fd5b8035906020019184600183028401116401000000008311171561064657600080fd5b91908080601f016020809104026020016040519081016040528093929190818152602001838380828437600081840152601f19601f820116905080830192505050505050509192919290803590602001909291905050506119b1565b005b3480156106b057600080fd5b506106b9611d87565b6040518082815260200191505060405180910390f35b3480156106db57600080fd5b5061071e600480360360208110156106f257600080fd5b81019080803573ffffffffffffffffffffffffffffffffffffffff169060200190929190505050611d8d565b604051808473ffffffffffffffffffffffffffffffffffffffff1673ffffffffffffffffffffffffffffffffffffffff1681526020018060200183600381111561076457fe5b60ff168152602001828103825284818151815260200191508051906020019080838360005b838110156107a4578082015181840152602081019050610789565b50505050905090810190601f1680156107d15780820380516001836020036101000a031916815260200191505b5094505050505060405180910390f35b60008054600181600116156101000203166002900480601f0160208091040260200160405190810160405280929190818152602001828054600181600116156101000203166002900480156108775780601f1061084c57610100808354040283529160200191610877565b820191906000526020600020905b81548152906001019060200180831161085a57829003601f168201915b505050505081565b6000821115156108f7576040517f08c379a000000000000000000000000000000000000000000000000000000000815260040180806020018281038252600e8152602001807f6964206d756368206265203e203000000000000000000000000000000000000081525060200191505060405180910390fd5b6000815111151561090757600080fd5b60001515610914836115e3565b151514151561098b576040517f08c379a00000000000000000000000000000000000000000000000000000000081526004018080602001828103825260128152602001807f70726f647563742068617665206578697374000000000000000000000000000081525060200191505060405180910390fd5b6001600381111561099857fe5b600560003373ffffffffffffffffffffffffffffffffffffffff1673ffffffffffffffffffffffffffffffffffffffff16815260200190815260200160002060020160009054906101000a900460ff1660038111156109f357fe5b141515610a68576040517f08c379a00000000000000000000000000000000000000000000000000000000081526004018080602001828103825260178152602001807f75736572206d756368206265206d616e75666163746f7200000000000000000081525060200191505060405180910390fd5b60026000815480929190600101919050555060e0604051908101604052806002548152602001838152602001828152602001600560003373ffffffffffffffffffffffffffffffffffffffff1673ffffffffffffffffffffffffffffffffffffffff1681526020019081526020016000206001018054600181600116156101000203166002900480601f016020809104026020016040519081016040528092919081815260200182805460018160011615610100020316600290048015610b705780601f10610b4557610100808354040283529160200191610b70565b820191906000526020600020905b815481529060010190602001808311610b5357829003601f168201915b50505050508152602001602060405190810160405280600081525081526020016020604051908101604052806000815250815260200160006002811115610bb357fe5b81525060036000600254815260200190815260200160002060008201518160000155602082015181600101556040820151816002019080519060200190610bfb929190611e7c565b506060820151816003019080519060200190610c18929190611e7c565b506080820151816004019080519060200190610c35929190611e7c565b5060a0820151816005019080519060200190610c52929190611e7c565b5060c08201518160060160006101000a81548160ff02191690836002811115610c7757fe5b02179055509050506001829080600181540180825580915050906001820390600052602060002001600090919290919091505550817fbd8b373ab98218eef3a8f5b9f56154abeeb2f5fd4444701065f564f85e3dfe2982600560003373ffffffffffffffffffffffffffffffffffffffff1673ffffffffffffffffffffffffffffffffffffffff1681526020019081526020016000206001016000604051808060200180602001846002811115610d2a57fe5b60ff168152602001838103835286818151815260200191508051906020019080838360005b83811015610d6a578082015181840152602081019050610d4f565b50505050905090810190601f168015610d975780820380516001836020036101000a031916815260200191505b50838103825285818154600181600116156101000203166002900481526020019150805460018160011615610100020316600290048015610e195780601f10610dee57610100808354040283529160200191610e19565b820191906000526020600020905b815481529060010190602001808311610dfc57829003601f168201915b50509550505050505060405180910390a25050565b60011515610e3b826115e3565b1515141515610eb2576040517f08c379a00000000000000000000000000000000000000000000000000000000081526004018080602001828103825260168152602001807f70726f647563742068617665206e6f742065786973740000000000000000000081525060200191505060405180910390fd5b60026003811115610ebf57fe5b6003811115610eca57fe5b600560003373ffffffffffffffffffffffffffffffffffffffff1673ffffffffffffffffffffffffffffffffffffffff16815260200190815260200160002060020160009054906101000a900460ff166003811115610f2557fe5b141515610f9a576040517f08c379a00000000000000000000000000000000000000000000000000000000081526004018080602001828103825260148152602001807f75736572206d756368206265207368697070657200000000000000000000000081525060200191505060405180910390fd5b600081111515611012576040517f08c379a000000000000000000000000000000000000000000000000000000000815260040180806020018281038252600e8152602001807f6964206d756368206265203e203000000000000000000000000000000000000081525060200191505060405180910390fd5b6000600190505b6002548111151561114d57816003600060025481526020019081526020016000206001015414801561108657506000600281111561105357fe5b60036000600254815260200190815260200160002060060160009054906101000a900460ff16600281111561108457fe5b145b1561114057600560003373ffffffffffffffffffffffffffffffffffffffff1673ffffffffffffffffffffffffffffffffffffffff1681526020019081526020016000206001016003600060025481526020019081526020016000206004019080546001816001161561010002031660029004611104929190611efc565b50600160036000600254815260200190815260200160002060060160006101000a81548160ff0219169083600281111561113a57fe5b02179055505b8080600101915050611019565b50807f69e6ed2699ef075e4e522a6ede612ed033375a895be47fc9335fc19e43659f63600560003373ffffffffffffffffffffffffffffffffffffffff1673ffffffffffffffffffffffffffffffffffffffff16815260200190815260200160002060010160036000600254815260200190815260200160002060060160009054906101000a900460ff1660405180806020018360028111156111ec57fe5b60ff1681526020018281038252848181546001816001161561010002031660029004815260200191508054600181600116156101000203166002900480156112755780601f1061124a57610100808354040283529160200191611275565b820191906000526020600020905b81548152906001019060200180831161125857829003601f168201915b5050935050505060405180910390a250565b60038081111561129357fe5b600381111561129e57fe5b600560003373ffffffffffffffffffffffffffffffffffffffff1673ffffffffffffffffffffffffffffffffffffffff16815260200190815260200160002060020160009054906101000a900460ff1660038111156112f957fe5b14151561136e576040517f08c379a00000000000000000000000000000000000000000000000000000000081526004018080602001828103825260158152602001807f75736572206d7563682062652072657461696c6572000000000000000000000081525060200191505060405180910390fd5b6000600190505b600254811115156114a95781600360006002548152602001908152602001600020600101541480156113e25750600160028111156113af57fe5b60036000600254815260200190815260200160002060060160009054906101000a900460ff1660028111156113e057fe5b145b1561149c57600560003373ffffffffffffffffffffffffffffffffffffffff1673ffffffffffffffffffffffffffffffffffffffff1681526020019081526020016000206001016003600060025481526020019081526020016000206005019080546001816001161561010002031660029004611460929190611efc565b50600260036000600254815260200190815260200160002060060160006101000a81548160ff0219169083600281111561149657fe5b02179055505b8080600101915050611375565b50807f69e6ed2699ef075e4e522a6ede612ed033375a895be47fc9335fc19e43659f63600560003373ffffffffffffffffffffffffffffffffffffffff1673ffffffffffffffffffffffffffffffffffffffff16815260200190815260200160002060010160036000600254815260200190815260200160002060060160009054906101000a900460ff16604051808060200183600281111561154857fe5b60ff1681526020018281038252848181546001816001161561010002031660029004815260200191508054600181600116156101000203166002900480156115d15780601f106115a6576101008083540402835291602001916115d1565b820191906000526020600020905b8154815290600101906020018083116115b457829003601f168201915b5050935050505060405180910390a250565b600080600090505b600180549050811015611630578260018281548110151561160857fe5b90600052602060002001541415611623576001915050611636565b80806001019150506115eb565b50600090505b919050565b60018181548110151561164a57fe5b906000526020600020016000915090505481565b6003602052806000526040600020600091509050806000015490806001015490806002018054600181600116156101000203166002900480601f0160208091040260200160405190810160405280929190818152602001828054600181600116156101000203166002900480156117165780601f106116eb57610100808354040283529160200191611716565b820191906000526020600020905b8154815290600101906020018083116116f957829003601f168201915b505050505090806003018054600181600116156101000203166002900480601f0160208091040260200160405190810160405280929190818152602001828054600181600116156101000203166002900480156117b45780601f10611789576101008083540402835291602001916117b4565b820191906000526020600020905b81548152906001019060200180831161179757829003601f168201915b505050505090806004018054600181600116156101000203166002900480601f0160208091040260200160405190810160405280929190818152602001828054600181600116156101000203166002900480156118525780601f1061182757610100808354040283529160200191611852565b820191906000526020600020905b81548152906001019060200180831161183557829003601f168201915b505050505090806005018054600181600116156101000203166002900480601f0160208091040260200160405190810160405280929190818152602001828054600181600116156101000203166002900480156118f05780601f106118c5576101008083540402835291602001916118f0565b820191906000526020600020905b8154815290600101906020018083116118d357829003601f168201915b5050505050908060060160009054906101000a900460ff16905087565b600080600090505b6004805490508110156119a6578273ffffffffffffffffffffffffffffffffffffffff1660048281548110151561194857fe5b9060005260206000200160009054906101000a900473ffffffffffffffffffffffffffffffffffffffff1673ffffffffffffffffffffffffffffffffffffffff1614156119995760019150506119ac565b8080600101915050611915565b50600090505b919050565b600015156119be8461190d565b1515141515611a35576040517f08c379a00000000000000000000000000000000000000000000000000000000081526004018080602001828103825260118152602001807f757365722068616420726567697374656400000000000000000000000000000081525060200191505060405180910390fd5b3373ffffffffffffffffffffffffffffffffffffffff168373ffffffffffffffffffffffffffffffffffffffff16141515611afe576040517f08c379a000000000000000000000000000000000000000000000000000000000815260040180806020018281038252602e8152602001807f796f752063616e206e6f742075736520616f74686572206f6e65206163636f7581526020017f6e7420746f20726567697374657200000000000000000000000000000000000081525060400191505060405180910390fd5b33600560008573ffffffffffffffffffffffffffffffffffffffff1673ffffffffffffffffffffffffffffffffffffffff16815260200190815260200160002060000160006101000a81548173ffffffffffffffffffffffffffffffffffffffff021916908373ffffffffffffffffffffffffffffffffffffffff16021790555081600560008573ffffffffffffffffffffffffffffffffffffffff1673ffffffffffffffffffffffffffffffffffffffff1681526020019081526020016000206001019080519060200190611bd5929190611f83565b50806003811115611be257fe5b600560008573ffffffffffffffffffffffffffffffffffffffff1673ffffffffffffffffffffffffffffffffffffffff16815260200190815260200160002060020160006101000a81548160ff02191690836003811115611c3f57fe5b021790555060048390806001815401808255809150509060018203906000526020600020016000909192909190916101000a81548173ffffffffffffffffffffffffffffffffffffffff021916908373ffffffffffffffffffffffffffffffffffffffff160217905550507f89105a1c6a3c2fbd471255c66a31ccab604af5697f67d7e2e9a0028c5e4dbd91838383604051808473ffffffffffffffffffffffffffffffffffffffff1673ffffffffffffffffffffffffffffffffffffffff16815260200180602001838152602001828103825284818151815260200191508051906020019080838360005b83811015611d46578082015181840152602081019050611d2b565b50505050905090810190601f168015611d735780820380516001836020036101000a031916815260200191505b5094505050505060405180910390a1505050565b60025481565b60056020528060005260406000206000915090508060000160009054906101000a900473ffffffffffffffffffffffffffffffffffffffff1690806001018054600181600116156101000203166002900480601f016020809104026020016040519081016040528092919081815260200182805460018160011615610100020316600290048015611e5f5780601f10611e3457610100808354040283529160200191611e5f565b820191906000526020600020905b815481529060010190602001808311611e4257829003601f168201915b5050505050908060020160009054906101000a900460ff16905083565b828054600181600116156101000203166002900490600052602060002090601f016020900481019282601f10611ebd57805160ff1916838001178555611eeb565b82800160010185558215611eeb579182015b82811115611eea578251825591602001919060010190611ecf565b5b509050611ef89190612003565b5090565b828054600181600116156101000203166002900490600052602060002090601f016020900481019282601f10611f355780548555611f72565b82800160010185558215611f7257600052602060002091601f016020900482015b82811115611f71578254825591600101919060010190611f56565b5b509050611f7f9190612003565b5090565b828054600181600116156101000203166002900490600052602060002090601f016020900481019282601f10611fc457805160ff1916838001178555611ff2565b82800160010185558215611ff2579182015b82811115611ff1578251825591602001919060010190611fd6565b5b509050611fff9190612003565b5090565b61202591905b80821115612021576000816000905550600101612009565b5090565b9056fea165627a7a72305820b629012fa30ed485becc2e8c8c8a98a8727dd90a5958c8e995ff99bea6f8317f0029",
  "source": "pragma solidity ^0.5.0;\r\n\r\ncontract Marketplace {\r\n            string public name;\r\n\r\n    constructor() public {\r\n        name = \"Marketplace\";\r\n    }\r\n\r\n    //Product\r\n    uint[] public  idpackages ;\r\n    enum productStatus { atcreator, picked, delivered}\r\n    uint public productCount = 0;\r\n    struct Product{\r\n        uint num;\r\n        uint productID;\r\n        string productName;\r\n        // int totalQuantity;\r\n        // int pickedQuantity;\r\n        // int deliveredQuantity;\r\n        string manufactor;\r\n        string shipper;\r\n        string retailer;\r\n        productStatus status;\r\n    }\r\n    mapping(uint => Product) public products;\r\n\r\n    // User\r\n    address[] users;\r\n    enum roles {norole, Manufactor, Shipper, Retailer}\r\n    struct User {\r\n        address userAddress;    \r\n        string userName;\r\n        roles role;\r\n\r\n    }\r\n    mapping( address => User) public  UserInfo;\r\n\r\n    // Event \r\n    event ProdcutCreated(\r\n        uint indexed productID,\r\n        string productName,\r\n        string manu,\r\n        productStatus status\r\n    );\r\n    event UpdateProductState(\r\n        uint indexed productID,\r\n        string owner,\r\n        productStatus status\r\n    );\r\n        event UserRegistered (\r\n        address userAddress,\r\n        string userName,\r\n        uint userRole\r\n    );\r\n\r\n\r\n    // -----------------------------\r\n    //User\r\n    function registerUser  (\r\n        address _userAddress,\r\n        string memory _userName,\r\n        uint _role\r\n    )   public    {\r\n        require(checkUserExist(_userAddress) == false, 'user had registed');\r\n        require(_userAddress == msg.sender \r\n                , 'you can not use aother one account to register');\r\n        UserInfo[_userAddress].userAddress = msg.sender  ;\r\n        UserInfo[_userAddress].userName = _userName;\r\n        UserInfo[_userAddress].role = roles(_role);\r\n        users.push(_userAddress);\r\n\r\n        emit UserRegistered(_userAddress, _userName,_role);\r\n\r\n    }\r\n\r\n    function checkUserExist (\r\n       address _address    \r\n    )   public returns (bool)\r\n    {\r\n        for (uint i =0; i < users.length;i++){\r\n            if (users[i] == _address){\r\n                return true;\r\n            }\r\n        }\r\n        return false;\r\n\r\n    }\r\n\r\n    //----------------------------------------------\r\n    // Product Function\r\n    function createProduct (  uint _proID ,string memory  _productName  )public {\r\n        require(_proID> 0, 'id much be > 0');\r\n        require(bytes(_productName).length > 0);\r\n        require( checkProductExits(_proID)== false,'product have exist');\r\n        require(UserInfo[msg.sender].role == roles.Manufactor ,'user much be manufactor');\r\n        productCount++;\r\n         products[productCount] = Product(productCount,_proID,_productName,UserInfo[msg.sender].userName, \r\n                                '', '',productStatus.atcreator);\r\n                                \r\n        idpackages.push(_proID);\r\n        // return (products[productCount].productID ,products[productCount].productName);\r\n        emit ProdcutCreated(_proID , _productName, UserInfo[msg.sender].userName, productStatus.atcreator);\r\n    }\r\n\r\n    function shipProduct( uint _proID) public {\r\n        require( checkProductExits(_proID)== true,'product have not exist');\r\n        require(UserInfo[msg.sender].role == roles(2) \r\n                            ,'user much be shipper');\r\n         require(_proID> 0, 'id much be > 0');\r\n        \r\n\r\n        for(uint i =1;i <=productCount; i++){\r\n            if (products[productCount].productID == _proID && products[productCount].status == productStatus.atcreator){\r\n                products[productCount].shipper = UserInfo[msg.sender].userName;\r\n                products[productCount].status = productStatus.picked;\r\n            }\r\n        }\r\n        emit UpdateProductState(_proID,UserInfo[msg.sender].userName ,products[productCount].status);\r\n    }\r\n\r\n    function receiveProduct( uint _proID ) public {\r\n        \r\n       \r\n        require(UserInfo[msg.sender].role == roles(3) \r\n                                ,'user much be retailer');\r\n\r\n        for(uint i =1;i <=productCount; i++){\r\n            if (products[productCount].productID == _proID && products[productCount].status == productStatus.picked){\r\n            products[productCount].retailer = UserInfo[msg.sender].userName;\r\n            products[productCount].status = productStatus.delivered;\r\n            }\r\n        }\r\n        emit UpdateProductState(_proID,UserInfo[msg.sender].userName ,products[productCount].status);\r\n    }\r\n    \r\n     function checkProductExits (uint  id)public returns (bool) {\r\n         for (uint i =0; i < idpackages.length;i++){\r\n            if (idpackages[i] == id){\r\n                return true;\r\n            }\r\n        }\r\n        return false;\r\n\r\n\r\n    }    \r\n}",
  "sourcePath": "D:/Freetime/Reactjs/Blockchain-Marketplace/remake-blockchain-marketplace/contracts/MarketPlace.sol",
  "compiler": {
    "name": "solc",
    "version": "0.5.0+commit.1d4f565a.Emscripten.clang"
  },
  "schemaVersion": "3.0.2",
  "updatedAt": "2020-06-30T04:16:56.081Z",
  "devdoc": {
    "methods": {}
  },
  "userdoc": {
    "methods": {}
  }
}