{
  "contractName": "Marketplace",
  "abi": [
    {
      "constant": true,
      "inputs": [],
      "name": "name",
      "outputs": [
        {
          "name": "",
          "type": "string"
        }
      ],
      "payable": false,
      "stateMutability": "view",
      "type": "function"
    },
    {
      "constant": true,
      "inputs": [
        {
          "name": "",
          "type": "uint256"
        }
      ],
      "name": "idpackages",
      "outputs": [
        {
          "name": "",
          "type": "uint256"
        }
      ],
      "payable": false,
      "stateMutability": "view",
      "type": "function"
    },
    {
      "constant": true,
      "inputs": [
        {
          "name": "",
          "type": "uint256"
        }
      ],
      "name": "products",
      "outputs": [
        {
          "name": "num",
          "type": "uint256"
        },
        {
          "name": "productID",
          "type": "uint256"
        },
        {
          "name": "productName",
          "type": "string"
        },
        {
          "name": "manufactor",
          "type": "string"
        },
        {
          "name": "shipper",
          "type": "string"
        },
        {
          "name": "retailer",
          "type": "string"
        },
        {
          "name": "status",
          "type": "uint8"
        }
      ],
      "payable": false,
      "stateMutability": "view",
      "type": "function"
    },
    {
      "constant": true,
      "inputs": [],
      "name": "productCount",
      "outputs": [
        {
          "name": "",
          "type": "uint256"
        }
      ],
      "payable": false,
      "stateMutability": "view",
      "type": "function"
    },
    {
      "constant": true,
      "inputs": [
        {
          "name": "",
          "type": "address"
        }
      ],
      "name": "UserInfo",
      "outputs": [
        {
          "name": "userAddress",
          "type": "address"
        },
        {
          "name": "userName",
          "type": "string"
        },
        {
          "name": "role",
          "type": "uint8"
        }
      ],
      "payable": false,
      "stateMutability": "view",
      "type": "function"
    },
    {
      "inputs": [],
      "payable": false,
      "stateMutability": "nonpayable",
      "type": "constructor"
    },
    {
      "anonymous": false,
      "inputs": [
        {
          "indexed": true,
          "name": "productID",
          "type": "uint256"
        },
        {
          "indexed": false,
          "name": "productName",
          "type": "string"
        },
        {
          "indexed": false,
          "name": "manu",
          "type": "string"
        },
        {
          "indexed": false,
          "name": "status",
          "type": "uint8"
        }
      ],
      "name": "ProdcutCreated",
      "type": "event"
    },
    {
      "anonymous": false,
      "inputs": [
        {
          "indexed": true,
          "name": "productID",
          "type": "uint256"
        },
        {
          "indexed": false,
          "name": "productName",
          "type": "string"
        },
        {
          "indexed": false,
          "name": "owner",
          "type": "string"
        },
        {
          "indexed": false,
          "name": "status",
          "type": "uint8"
        }
      ],
      "name": "UpdateProductState",
      "type": "event"
    },
    {
      "anonymous": false,
      "inputs": [
        {
          "indexed": false,
          "name": "userAddress",
          "type": "address"
        },
        {
          "indexed": false,
          "name": "userName",
          "type": "string"
        },
        {
          "indexed": false,
          "name": "userRole",
          "type": "uint256"
        }
      ],
      "name": "UserRegistered",
      "type": "event"
    },
    {
      "constant": false,
      "inputs": [
        {
          "name": "_userAddress",
          "type": "address"
        },
        {
          "name": "_userName",
          "type": "string"
        },
        {
          "name": "_role",
          "type": "uint256"
        }
      ],
      "name": "registerUser",
      "outputs": [],
      "payable": false,
      "stateMutability": "nonpayable",
      "type": "function"
    },
    {
      "constant": false,
      "inputs": [
        {
          "name": "_address",
          "type": "address"
        }
      ],
      "name": "checkUserExist",
      "outputs": [
        {
          "name": "",
          "type": "bool"
        }
      ],
      "payable": false,
      "stateMutability": "nonpayable",
      "type": "function"
    },
    {
      "constant": false,
      "inputs": [
        {
          "name": "_proID",
          "type": "uint256"
        },
        {
          "name": "_productName",
          "type": "string"
        }
      ],
      "name": "createProduct",
      "outputs": [],
      "payable": false,
      "stateMutability": "nonpayable",
      "type": "function"
    },
    {
      "constant": false,
      "inputs": [
        {
          "name": "_proID",
          "type": "uint256"
        },
        {
          "name": "_productName",
          "type": "string"
        }
      ],
      "name": "shipProdcut",
      "outputs": [],
      "payable": false,
      "stateMutability": "nonpayable",
      "type": "function"
    },
    {
      "constant": false,
      "inputs": [
        {
          "name": "_proID",
          "type": "uint256"
        },
        {
          "name": "_productName",
          "type": "string"
        }
      ],
      "name": "receiveProuct",
      "outputs": [],
      "payable": false,
      "stateMutability": "nonpayable",
      "type": "function"
    },
    {
      "constant": false,
      "inputs": [
        {
          "name": "id",
          "type": "uint256"
        }
      ],
      "name": "checkProductExits",
      "outputs": [
        {
          "name": "",
          "type": "bool"
        }
      ],
      "payable": false,
      "stateMutability": "nonpayable",
      "type": "function"
    }
  ],
  "bytecode": "0x608060405260006002553480156200001657600080fd5b506040805190810160405280600b81526020017f4d61726b6574706c61636500000000000000000000000000000000000000000081525060009080519060200190620000649291906200006b565b506200011a565b828054600181600116156101000203166002900490600052602060002090601f016020900481019282601f10620000ae57805160ff1916838001178555620000df565b82800160010185558215620000df579182015b82811115620000de578251825591602001919060010190620000c1565b5b509050620000ee9190620000f2565b5090565b6200011791905b8082111562000113576000816000905550600101620000f9565b5090565b90565b6121dd806200012a6000396000f3fe6080604052600436106100af576000357c0100000000000000000000000000000000000000000000000000000000900463ffffffff16806306fdde03146100b45780630a01841d146101445780632c054c6814610216578063359543b7146102695780634fe7f1c8146102b85780637587d2431461038a5780637acc0b201461045c578063926bef6314610677578063b612b21c146106e0578063e0f6ef87146107d2578063e377ee1b146107fd575b600080fd5b3480156100c057600080fd5b506100c961090f565b6040518080602001828103825283818151815260200191508051906020019080838360005b838110156101095780820151818401526020810190506100ee565b50505050905090810190601f1680156101365780820380516001836020036101000a031916815260200191505b509250505060405180910390f35b34801561015057600080fd5b506102146004803603604081101561016757600080fd5b81019080803590602001909291908035906020019064010000000081111561018e57600080fd5b8201836020820111156101a057600080fd5b803590602001918460018302840111640100000000831117156101c257600080fd5b91908080601f016020809104026020016040519081016040528093929190818152602001838380828437600081840152601f19601f8201169050808301925050505050505091929192905050506109ad565b005b34801561022257600080fd5b5061024f6004803603602081101561023957600080fd5b8101908080359060200190929190505050610f5c565b604051808215151515815260200191505060405180910390f35b34801561027557600080fd5b506102a26004803603602081101561028c57600080fd5b8101908080359060200190929190505050610fb4565b6040518082815260200191505060405180910390f35b3480156102c457600080fd5b50610388600480360360408110156102db57600080fd5b81019080803590602001909291908035906020019064010000000081111561030257600080fd5b82018360208201111561031457600080fd5b8035906020019184600183028401116401000000008311171561033657600080fd5b91908080601f016020809104026020016040519081016040528093929190818152602001838380828437600081840152601f19601f820116905080830192505050505050509192919290505050610fd7565b005b34801561039657600080fd5b5061045a600480360360408110156103ad57600080fd5b8101908080359060200190929190803590602001906401000000008111156103d457600080fd5b8201836020820111156103e657600080fd5b8035906020019184600183028401116401000000008311171561040857600080fd5b91908080601f016020809104026020016040519081016040528093929190818152602001838380828437600081840152601f19601f82011690508083019250505050505050919291929050505061149e565b005b34801561046857600080fd5b506104956004803603602081101561047f57600080fd5b8101908080359060200190929190505050611868565b60405180888152602001878152602001806020018060200180602001806020018660028111156104c157fe5b60ff16815260200185810385528a818151815260200191508051906020019080838360005b838110156105015780820151818401526020810190506104e6565b50505050905090810190601f16801561052e5780820380516001836020036101000a031916815260200191505b50858103845289818151815260200191508051906020019080838360005b8381101561056757808201518184015260208101905061054c565b50505050905090810190601f1680156105945780820380516001836020036101000a031916815260200191505b50858103835288818151815260200191508051906020019080838360005b838110156105cd5780820151818401526020810190506105b2565b50505050905090810190601f1680156105fa5780820380516001836020036101000a031916815260200191505b50858103825287818151815260200191508051906020019080838360005b83811015610633578082015181840152602081019050610618565b50505050905090810190601f1680156106605780820380516001836020036101000a031916815260200191505b509b50505050505050505050505060405180910390f35b34801561068357600080fd5b506106c66004803603602081101561069a57600080fd5b81019080803573ffffffffffffffffffffffffffffffffffffffff169060200190929190505050611b17565b604051808215151515815260200191505060405180910390f35b3480156106ec57600080fd5b506107d06004803603606081101561070357600080fd5b81019080803573ffffffffffffffffffffffffffffffffffffffff1690602001909291908035906020019064010000000081111561074057600080fd5b82018360208201111561075257600080fd5b8035906020019184600183028401116401000000008311171561077457600080fd5b91908080601f016020809104026020016040519081016040528093929190818152602001838380828437600081840152601f19601f82011690508083019250505050505050919291929080359060200190929190505050611bbb565b005b3480156107de57600080fd5b506107e7611f10565b6040518082815260200191505060405180910390f35b34801561080957600080fd5b5061084c6004803603602081101561082057600080fd5b81019080803573ffffffffffffffffffffffffffffffffffffffff169060200190929190505050611f16565b604051808473ffffffffffffffffffffffffffffffffffffffff1673ffffffffffffffffffffffffffffffffffffffff1681526020018060200183600381111561089257fe5b60ff168152602001828103825284818151815260200191508051906020019080838360005b838110156108d25780820151818401526020810190506108b7565b50505050905090810190601f1680156108ff5780820380516001836020036101000a031916815260200191505b5094505050505060405180910390f35b60008054600181600116156101000203166002900480601f0160208091040260200160405190810160405280929190818152602001828054600181600116156101000203166002900480156109a55780601f1061097a576101008083540402835291602001916109a5565b820191906000526020600020905b81548152906001019060200180831161098857829003601f168201915b505050505081565b600082111515610a25576040517f08c379a000000000000000000000000000000000000000000000000000000000815260040180806020018281038252600e8152602001807f6964206d756368206265203e203000000000000000000000000000000000000081525060200191505060405180910390fd5b60008151111515610a3557600080fd5b60001515610a4283610f5c565b1515141515610ab9576040517f08c379a00000000000000000000000000000000000000000000000000000000081526004018080602001828103825260128152602001807f70726f647563742068617665206578697374000000000000000000000000000081525060200191505060405180910390fd5b60016003811115610ac657fe5b600560003373ffffffffffffffffffffffffffffffffffffffff1673ffffffffffffffffffffffffffffffffffffffff16815260200190815260200160002060020160009054906101000a900460ff166003811115610b2157fe5b141515610b96576040517f08c379a00000000000000000000000000000000000000000000000000000000081526004018080602001828103825260178152602001807f75736572206d756368206265206d616e75666163746f7200000000000000000081525060200191505060405180910390fd5b60026000815480929190600101919050555060e0604051908101604052806002548152602001838152602001828152602001600560003373ffffffffffffffffffffffffffffffffffffffff1673ffffffffffffffffffffffffffffffffffffffff1681526020019081526020016000206001018054600181600116156101000203166002900480601f016020809104026020016040519081016040528092919081815260200182805460018160011615610100020316600290048015610c9e5780601f10610c7357610100808354040283529160200191610c9e565b820191906000526020600020905b815481529060010190602001808311610c8157829003601f168201915b50505050508152602001602060405190810160405280600081525081526020016020604051908101604052806000815250815260200160006002811115610ce157fe5b81525060036000600254815260200190815260200160002060008201518160000155602082015181600101556040820151816002019080519060200190610d29929190612005565b506060820151816003019080519060200190610d46929190612005565b506080820151816004019080519060200190610d63929190612005565b5060a0820151816005019080519060200190610d80929190612005565b5060c08201518160060160006101000a81548160ff02191690836002811115610da557fe5b02179055509050506001829080600181540180825580915050906001820390600052602060002001600090919290919091505550817fbd8b373ab98218eef3a8f5b9f56154abeeb2f5fd4444701065f564f85e3dfe2982600560003373ffffffffffffffffffffffffffffffffffffffff1673ffffffffffffffffffffffffffffffffffffffff1681526020019081526020016000206001016000604051808060200180602001846002811115610e5857fe5b60ff168152602001838103835286818151815260200191508051906020019080838360005b83811015610e98578082015181840152602081019050610e7d565b50505050905090810190601f168015610ec55780820380516001836020036101000a031916815260200191505b50838103825285818154600181600116156101000203166002900481526020019150805460018160011615610100020316600290048015610f475780601f10610f1c57610100808354040283529160200191610f47565b820191906000526020600020905b815481529060010190602001808311610f2a57829003601f168201915b50509550505050505060405180910390a25050565b600080600090505b600180549050811015610fa95782600182815481101515610f8157fe5b90600052602060002001541415610f9c576001915050610faf565b8080600101915050610f64565b50600090505b919050565b600181815481101515610fc357fe5b906000526020600020016000915090505481565b60011515610fe483610f5c565b151514151561105b576040517f08c379a00000000000000000000000000000000000000000000000000000000081526004018080602001828103825260168152602001807f70726f647563742068617665206e6f742065786973740000000000000000000081525060200191505060405180910390fd5b6002600381111561106857fe5b600381111561107357fe5b600560003373ffffffffffffffffffffffffffffffffffffffff1673ffffffffffffffffffffffffffffffffffffffff16815260200190815260200160002060020160009054906101000a900460ff1660038111156110ce57fe5b141515611143576040517f08c379a00000000000000000000000000000000000000000000000000000000081526004018080602001828103825260148152602001807f75736572206d756368206265207368697070657200000000000000000000000081525060200191505060405180910390fd5b6000821115156111bb576040517f08c379a000000000000000000000000000000000000000000000000000000000815260040180806020018281038252600e8152602001807f6964206d756368206265203e203000000000000000000000000000000000000081525060200191505060405180910390fd5b6000600190505b600254811115156112f657826003600060025481526020019081526020016000206001015414801561122f5750600060028111156111fc57fe5b60036000600254815260200190815260200160002060060160009054906101000a900460ff16600281111561122d57fe5b145b156112e957600560003373ffffffffffffffffffffffffffffffffffffffff1673ffffffffffffffffffffffffffffffffffffffff16815260200190815260200160002060010160036000600254815260200190815260200160002060040190805460018160011615610100020316600290046112ad929190612085565b50600160036000600254815260200190815260200160002060060160006101000a81548160ff021916908360028111156112e357fe5b02179055505b80806001019150506111c2565b50817f877a089ef00fdd6231576b23e8c32a442d207afd5196b8388b2539b7cb610e5082600560003373ffffffffffffffffffffffffffffffffffffffff1673ffffffffffffffffffffffffffffffffffffffff16815260200190815260200160002060010160036000600254815260200190815260200160002060060160009054906101000a900460ff1660405180806020018060200184600281111561139a57fe5b60ff168152602001838103835286818151815260200191508051906020019080838360005b838110156113da5780820151818401526020810190506113bf565b50505050905090810190601f1680156114075780820380516001836020036101000a031916815260200191505b508381038252858181546001816001161561010002031660029004815260200191508054600181600116156101000203166002900480156114895780601f1061145e57610100808354040283529160200191611489565b820191906000526020600020905b81548152906001019060200180831161146c57829003601f168201915b50509550505050505060405180910390a25050565b6003808111156114aa57fe5b60038111156114b557fe5b600560003373ffffffffffffffffffffffffffffffffffffffff1673ffffffffffffffffffffffffffffffffffffffff16815260200190815260200160002060020160009054906101000a900460ff16600381111561151057fe5b141515611585576040517f08c379a00000000000000000000000000000000000000000000000000000000081526004018080602001828103825260158152602001807f75736572206d7563682062652072657461696c6572000000000000000000000081525060200191505060405180910390fd5b6000600190505b600254811115156116c05782600360006002548152602001908152602001600020600101541480156115f95750600160028111156115c657fe5b60036000600254815260200190815260200160002060060160009054906101000a900460ff1660028111156115f757fe5b145b156116b357600560003373ffffffffffffffffffffffffffffffffffffffff1673ffffffffffffffffffffffffffffffffffffffff1681526020019081526020016000206001016003600060025481526020019081526020016000206005019080546001816001161561010002031660029004611677929190612085565b50600260036000600254815260200190815260200160002060060160006101000a81548160ff021916908360028111156116ad57fe5b02179055505b808060010191505061158c565b50817f877a089ef00fdd6231576b23e8c32a442d207afd5196b8388b2539b7cb610e5082600560003373ffffffffffffffffffffffffffffffffffffffff1673ffffffffffffffffffffffffffffffffffffffff16815260200190815260200160002060010160036000600254815260200190815260200160002060060160009054906101000a900460ff1660405180806020018060200184600281111561176457fe5b60ff168152602001838103835286818151815260200191508051906020019080838360005b838110156117a4578082015181840152602081019050611789565b50505050905090810190601f1680156117d15780820380516001836020036101000a031916815260200191505b508381038252858181546001816001161561010002031660029004815260200191508054600181600116156101000203166002900480156118535780601f1061182857610100808354040283529160200191611853565b820191906000526020600020905b81548152906001019060200180831161183657829003601f168201915b50509550505050505060405180910390a25050565b6003602052806000526040600020600091509050806000015490806001015490806002018054600181600116156101000203166002900480601f0160208091040260200160405190810160405280929190818152602001828054600181600116156101000203166002900480156119205780601f106118f557610100808354040283529160200191611920565b820191906000526020600020905b81548152906001019060200180831161190357829003601f168201915b505050505090806003018054600181600116156101000203166002900480601f0160208091040260200160405190810160405280929190818152602001828054600181600116156101000203166002900480156119be5780601f10611993576101008083540402835291602001916119be565b820191906000526020600020905b8154815290600101906020018083116119a157829003601f168201915b505050505090806004018054600181600116156101000203166002900480601f016020809104026020016040519081016040528092919081815260200182805460018160011615610100020316600290048015611a5c5780601f10611a3157610100808354040283529160200191611a5c565b820191906000526020600020905b815481529060010190602001808311611a3f57829003601f168201915b505050505090806005018054600181600116156101000203166002900480601f016020809104026020016040519081016040528092919081815260200182805460018160011615610100020316600290048015611afa5780601f10611acf57610100808354040283529160200191611afa565b820191906000526020600020905b815481529060010190602001808311611add57829003601f168201915b5050505050908060060160009054906101000a900460ff16905087565b600080600090505b600480549050811015611bb0578273ffffffffffffffffffffffffffffffffffffffff16600482815481101515611b5257fe5b9060005260206000200160009054906101000a900473ffffffffffffffffffffffffffffffffffffffff1673ffffffffffffffffffffffffffffffffffffffff161415611ba3576001915050611bb6565b8080600101915050611b1f565b50600090505b919050565b60001515611bc884611b17565b1515141515611c3f576040517f08c379a00000000000000000000000000000000000000000000000000000000081526004018080602001828103825260118152602001807f757365722068616420726567697374656400000000000000000000000000000081525060200191505060405180910390fd5b3373ffffffffffffffffffffffffffffffffffffffff168373ffffffffffffffffffffffffffffffffffffffff16141515611d08576040517f08c379a000000000000000000000000000000000000000000000000000000000815260040180806020018281038252602e8152602001807f796f752063616e206e6f742075736520616f74686572206f6e65206163636f7581526020017f6e7420746f20726567697374657200000000000000000000000000000000000081525060400191505060405180910390fd5b81600560008573ffffffffffffffffffffffffffffffffffffffff1673ffffffffffffffffffffffffffffffffffffffff1681526020019081526020016000206001019080519060200190611d5e92919061210c565b50806003811115611d6b57fe5b600560008573ffffffffffffffffffffffffffffffffffffffff1673ffffffffffffffffffffffffffffffffffffffff16815260200190815260200160002060020160006101000a81548160ff02191690836003811115611dc857fe5b021790555060048390806001815401808255809150509060018203906000526020600020016000909192909190916101000a81548173ffffffffffffffffffffffffffffffffffffffff021916908373ffffffffffffffffffffffffffffffffffffffff160217905550507f89105a1c6a3c2fbd471255c66a31ccab604af5697f67d7e2e9a0028c5e4dbd91838383604051808473ffffffffffffffffffffffffffffffffffffffff1673ffffffffffffffffffffffffffffffffffffffff16815260200180602001838152602001828103825284818151815260200191508051906020019080838360005b83811015611ecf578082015181840152602081019050611eb4565b50505050905090810190601f168015611efc5780820380516001836020036101000a031916815260200191505b5094505050505060405180910390a1505050565b60025481565b60056020528060005260406000206000915090508060000160009054906101000a900473ffffffffffffffffffffffffffffffffffffffff1690806001018054600181600116156101000203166002900480601f016020809104026020016040519081016040528092919081815260200182805460018160011615610100020316600290048015611fe85780601f10611fbd57610100808354040283529160200191611fe8565b820191906000526020600020905b815481529060010190602001808311611fcb57829003601f168201915b5050505050908060020160009054906101000a900460ff16905083565b828054600181600116156101000203166002900490600052602060002090601f016020900481019282601f1061204657805160ff1916838001178555612074565b82800160010185558215612074579182015b82811115612073578251825591602001919060010190612058565b5b509050612081919061218c565b5090565b828054600181600116156101000203166002900490600052602060002090601f016020900481019282601f106120be57805485556120fb565b828001600101855582156120fb57600052602060002091601f016020900482015b828111156120fa5782548255916001019190600101906120df565b5b509050612108919061218c565b5090565b828054600181600116156101000203166002900490600052602060002090601f016020900481019282601f1061214d57805160ff191683800117855561217b565b8280016001018555821561217b579182015b8281111561217a57825182559160200191906001019061215f565b5b509050612188919061218c565b5090565b6121ae91905b808211156121aa576000816000905550600101612192565b5090565b9056fea165627a7a723058207f40dd65b4cbdb5b5fa20819f99ee508c8b6eb008bd91300cd93193e37852b6d0029",
  "source": "pragma solidity ^0.5.0;\r\n\r\ncontract Marketplace {\r\n            string public name;\r\n\r\n    constructor() public {\r\n        name = \"Marketplace\";\r\n    }\r\n\r\n    //Product\r\n    uint[] public  idpackages ;\r\n    enum productStatus { atcreator, picked, delivered}\r\n    uint public productCount = 0;\r\n    struct Product{\r\n        uint num;\r\n        uint productID;\r\n        string productName;\r\n        // int totalQuantity;\r\n        // int pickedQuantity;\r\n        // int deliveredQuantity;\r\n        string manufactor;\r\n        string shipper;\r\n        string retailer;\r\n        productStatus status;\r\n    }\r\n    mapping(uint => Product) public products;\r\n\r\n    // User\r\n    address[] users;\r\n    enum roles {norole, Manufactor, Shipper, Retailer}\r\n    struct User {\r\n        address userAddress;    \r\n        string userName;\r\n        roles role;\r\n\r\n    }\r\n    mapping( address => User) public  UserInfo;\r\n\r\n    // Event \r\n    event ProdcutCreated(\r\n        uint indexed productID,\r\n        string productName,\r\n        string manu,\r\n        productStatus status\r\n    );\r\n    event UpdateProductState(\r\n        uint indexed productID,\r\n        string productName,\r\n        string owner,\r\n        productStatus status\r\n    );\r\n        event UserRegistered (\r\n        address userAddress,\r\n        string userName,\r\n        uint userRole\r\n    );\r\n\r\n\r\n    // -----------------------------\r\n    //User\r\n    function registerUser  (\r\n        address _userAddress,\r\n        string memory _userName,\r\n        uint _role\r\n    )   public    {\r\n        require(checkUserExist(_userAddress) == false, 'user had registed');\r\n        require(_userAddress == msg.sender \r\n                , 'you can not use aother one account to register');\r\n        UserInfo[_userAddress].userName = _userName;\r\n        UserInfo[_userAddress].role = roles(_role);\r\n        users.push(_userAddress);\r\n\r\n        emit UserRegistered(_userAddress, _userName,_role);\r\n\r\n    }\r\n\r\n    function checkUserExist (\r\n       address _address    \r\n    )   public returns (bool)\r\n    {\r\n        for (uint i =0; i < users.length;i++){\r\n            if (users[i] == _address){\r\n                return true;\r\n            }\r\n        }\r\n        return false;\r\n\r\n    }\r\n\r\n    //----------------------------------------------\r\n    // Product Function\r\n    function createProduct (  uint _proID ,string memory  _productName  )public {\r\n        require(_proID> 0, 'id much be > 0');\r\n        require(bytes(_productName).length > 0);\r\n        require( checkProductExits(_proID)== false,'product have exist');\r\n        require(UserInfo[msg.sender].role == roles.Manufactor ,'user much be manufactor');\r\n        productCount++;\r\n         products[productCount] = Product(productCount,_proID,_productName,UserInfo[msg.sender].userName, \r\n                                '', '',productStatus.atcreator);\r\n                                \r\n        idpackages.push(_proID);\r\n        // return (products[productCount].productID ,products[productCount].productName);\r\n        emit ProdcutCreated(_proID , _productName, UserInfo[msg.sender].userName, productStatus.atcreator);\r\n    }\r\n\r\n    function shipProdcut( uint _proID, string memory _productName ) public {\r\n        require( checkProductExits(_proID)== true,'product have not exist');\r\n        require(UserInfo[msg.sender].role == roles(2) \r\n                            ,'user much be shipper');\r\n         require(_proID> 0, 'id much be > 0');\r\n        \r\n\r\n        for(uint i =1;i <=productCount; i++){\r\n            if (products[productCount].productID == _proID && products[productCount].status == productStatus.atcreator){\r\n                products[productCount].shipper = UserInfo[msg.sender].userName;\r\n                products[productCount].status = productStatus.picked;\r\n            }\r\n        }\r\n        emit UpdateProductState(_proID,_productName,UserInfo[msg.sender].userName ,products[productCount].status);\r\n    }\r\n\r\n    function receiveProuct( uint _proID, string memory _productName ) public {\r\n        \r\n       \r\n        require(UserInfo[msg.sender].role == roles(3) \r\n                                ,'user much be retailer');\r\n\r\n        for(uint i =1;i <=productCount; i++){\r\n            if (products[productCount].productID == _proID && products[productCount].status == productStatus.picked){\r\n            products[productCount].retailer = UserInfo[msg.sender].userName;\r\n            products[productCount].status = productStatus.delivered;\r\n            }\r\n        }\r\n        emit UpdateProductState(_proID,_productName,UserInfo[msg.sender].userName ,products[productCount].status);\r\n    }\r\n    \r\n     function checkProductExits (uint  id)public returns (bool) {\r\n         for (uint i =0; i < idpackages.length;i++){\r\n            if (idpackages[i] == id){\r\n                return true;\r\n            }\r\n        }\r\n        return false;\r\n\r\n\r\n    }    \r\n}",
  "sourcePath": "D:/Freetime/Reactjs/Blockchain-Marketplace/remake-blockchain-marketplace/contracts/MarketPlace.sol",
  "compiler": {
    "name": "solc",
    "version": "0.5.0+commit.1d4f565a.Emscripten.clang"
  },
  "schemaVersion": "3.0.2",
  "updatedAt": "2020-06-10T03:55:03.876Z",
  "devdoc": {
    "methods": {}
  },
  "userdoc": {
    "methods": {}
  }
}